{
  "url": "https://api.github.com/repos/ethereum/go-ethereum/issues/16290",
  "repository_url": "https://api.github.com/repos/ethereum/go-ethereum",
  "labels_url": "https://api.github.com/repos/ethereum/go-ethereum/issues/16290/labels{/name}",
  "comments_url": "https://api.github.com/repos/ethereum/go-ethereum/issues/16290/comments",
  "events_url": "https://api.github.com/repos/ethereum/go-ethereum/issues/16290/events",
  "html_url": "https://github.com/ethereum/go-ethereum/issues/16290",
  "id": 303767993,
  "node_id": "MDU6SXNzdWUzMDM3Njc5OTM=",
  "number": 16290,
  "title": "Send raw transaction return \"rlp: input string too long for common.Address, decoding into (types.Transaction)(types.txdata).Recipient\"",
  "user": {
    "login": "acinmavi",
    "id": 11534046,
    "node_id": "MDQ6VXNlcjExNTM0MDQ2",
    "avatar_url": "https://avatars.githubusercontent.com/u/11534046?v=4",
    "gravatar_id": "",
    "url": "https://api.github.com/users/acinmavi",
    "html_url": "https://github.com/acinmavi",
    "followers_url": "https://api.github.com/users/acinmavi/followers",
    "following_url": "https://api.github.com/users/acinmavi/following{/other_user}",
    "gists_url": "https://api.github.com/users/acinmavi/gists{/gist_id}",
    "starred_url": "https://api.github.com/users/acinmavi/starred{/owner}{/repo}",
    "subscriptions_url": "https://api.github.com/users/acinmavi/subscriptions",
    "organizations_url": "https://api.github.com/users/acinmavi/orgs",
    "repos_url": "https://api.github.com/users/acinmavi/repos",
    "events_url": "https://api.github.com/users/acinmavi/events{/privacy}",
    "received_events_url": "https://api.github.com/users/acinmavi/received_events",
    "type": "User",
    "site_admin": false
  },
  "labels": [
    {
      "id": 1132754722,
      "node_id": "MDU6TGFiZWwxMTMyNzU0NzIy",
      "url": "https://api.github.com/repos/ethereum/go-ethereum/labels/need:more-information",
      "name": "need:more-information",
      "color": "db6fa3",
      "default": false,
      "description": ""
    }
  ],
  "state": "closed",
  "locked": false,
  "assignee": null,
  "assignees": [

  ],
  "milestone": null,
  "comments": 7,
  "created_at": "2018-03-09T08:56:43Z",
  "updated_at": "2020-01-29T07:02:11Z",
  "closed_at": "2018-04-11T09:28:10Z",
  "author_association": "NONE",
  "active_lock_reason": null,
  "body": "I have set this raw transaction via ropsten network, that i think it's valid . But when sign and send raw transaction , go ethereum can't decode it using rlp and return \"rlp: input string too long for common.Address, decoding into (types.Transaction)(types.txdata).Recipient\"\r\nHere are my request and response :\r\n\r\nfinal String sender = \"0x70a8968683e799f3f478d98ad1b8313fac020e66\";\r\nfinal String receiver = \"0xa66c3de8076e231d57a578d163a126dc975670f7\"; \r\nfinal BigInteger privateKeySender = new BigInteger(\"xxxxxxxxxxxxxxxxxxxxxxxxxxxxxxxxxxxxxxxxx\");\r\nfinal BigInteger amount = new BigInteger(\"299939344000000000\");\r\nfinal String comment = \"xxxxx\";\r\nfinal long gasLimit = 200000L;\r\n\r\n2018-03-09 15:43:36:946  INFO - XHttpClient [main] - start to http post, uri: http://xxxxxxx:8545 , headers [Content-Type: application/json] , body {\"id\":910068480022153828,\"jsonrpc\":\"2.0\",\"method\":\"eth_sendRawTransaction\",\"params\":[\"0xF88A01847735940083030D40AA307861363663336465383037366532333164353761353738643136336131323664633937353637306637880429993E8548A000884249545F434F52453DA04BB291FCCEBD9AA65C833AA82F99219CA92AF81BF0BDA5276E7DBE27979FB4E5A049D6FE7D3B7585906043FFC5EE245D366383CD751B19ACAAD9B0BECD815083DB\"]} , timeout 60000,\r\n2018-03-09 15:43:37:114  INFO - XHttpClients [main] - finish http request ,response status HTTP/1.1 200 OK , body {\"jsonrpc\":\"2.0\",\"id\":910068480022153828,\"error\":{\"code\":-32000,\"message\":\"rlp: input string too long for common.Address, decoding into (types.Transaction)(types.txdata).Recipient\"}}\r\n\r\nAnyone please help to find out what could the problem be?",
  "closed_by": {
    "login": "no-response[bot]",
    "id": 32965360,
    "node_id": "MDM6Qm90MzI5NjUzNjA=",
    "avatar_url": "https://avatars.githubusercontent.com/u/26350515?v=4",
    "gravatar_id": "",
    "url": "https://api.github.com/users/no-response%5Bbot%5D",
    "html_url": "https://github.com/apps/no-response",
    "followers_url": "https://api.github.com/users/no-response%5Bbot%5D/followers",
    "following_url": "https://api.github.com/users/no-response%5Bbot%5D/following{/other_user}",
    "gists_url": "https://api.github.com/users/no-response%5Bbot%5D/gists{/gist_id}",
    "starred_url": "https://api.github.com/users/no-response%5Bbot%5D/starred{/owner}{/repo}",
    "subscriptions_url": "https://api.github.com/users/no-response%5Bbot%5D/subscriptions",
    "organizations_url": "https://api.github.com/users/no-response%5Bbot%5D/orgs",
    "repos_url": "https://api.github.com/users/no-response%5Bbot%5D/repos",
    "events_url": "https://api.github.com/users/no-response%5Bbot%5D/events{/privacy}",
    "received_events_url": "https://api.github.com/users/no-response%5Bbot%5D/received_events",
    "type": "Bot",
    "site_admin": false
  },
  "reactions": {
    "url": "https://api.github.com/repos/ethereum/go-ethereum/issues/16290/reactions",
    "total_count": 0,
    "+1": 0,
    "-1": 0,
    "laugh": 0,
    "hooray": 0,
    "confused": 0,
    "heart": 0,
    "rocket": 0,
    "eyes": 0
  },
  "timeline_url": "https://api.github.com/repos/ethereum/go-ethereum/issues/16290/timeline",
  "performed_via_github_app": null,
  "state_reason": "completed"
}
[
  {
    "url": "https://api.github.com/repos/ethereum/go-ethereum/issues/comments/371756253",
    "html_url": "https://github.com/ethereum/go-ethereum/issues/16290#issuecomment-371756253",
    "issue_url": "https://api.github.com/repos/ethereum/go-ethereum/issues/16290",
    "id": 371756253,
    "node_id": "MDEyOklzc3VlQ29tbWVudDM3MTc1NjI1Mw==",
    "user": {
      "login": "holiman",
      "id": 142290,
      "node_id": "MDQ6VXNlcjE0MjI5MA==",
      "avatar_url": "https://avatars.githubusercontent.com/u/142290?v=4",
      "gravatar_id": "",
      "url": "https://api.github.com/users/holiman",
      "html_url": "https://github.com/holiman",
      "followers_url": "https://api.github.com/users/holiman/followers",
      "following_url": "https://api.github.com/users/holiman/following{/other_user}",
      "gists_url": "https://api.github.com/users/holiman/gists{/gist_id}",
      "starred_url": "https://api.github.com/users/holiman/starred{/owner}{/repo}",
      "subscriptions_url": "https://api.github.com/users/holiman/subscriptions",
      "organizations_url": "https://api.github.com/users/holiman/orgs",
      "repos_url": "https://api.github.com/users/holiman/repos",
      "events_url": "https://api.github.com/users/holiman/events{/privacy}",
      "received_events_url": "https://api.github.com/users/holiman/received_events",
      "type": "User",
      "site_admin": false
    },
    "created_at": "2018-03-09T09:12:08Z",
    "updated_at": "2018-03-09T09:12:25Z",
    "author_association": "MEMBER",
    "body": "The rlp data is \r\n```\r\n$ ./rlpdump -hex 0xF88A01847735940083030D40AA307861363663336465383037366532333164353761353738643136336131323664633937353637306637880429993E8548A000884249545F434F52453DA04BB291FCCEBD9AA65C833AA82F99219CA92AF81BF0BDA5276E7DBE27979FB4E5A049D6FE7D3B7585906043FFC5EE245D366383CD751B19ACAAD9B0BECD815083DB\r\n[\r\n  01,\r\n  77359400,\r\n  030d40,\r\n  \"0xa66c3de8076e231d57a578d163a126dc975670f7\",\r\n  0429993e8548a000,\r\n  \"BIT_CORE\",\r\n  \"=\",\r\n  4bb291fccebd9aa65c833aa82f99219ca92af81bf0bda5276e7dbe27979fb4e5,\r\n  49d6fe7d3b7585906043ffc5ee245d366383cd751b19acaad9b0becd815083db,\r\n]\r\n```\r\n\r\nwhich _should_ corresponsd to\r\n```\r\ntype txdata struct {\r\n\tAccountNonce uint64          `json:\"nonce\"    gencodec:\"required\"`\r\n\tPrice        *big.Int        `json:\"gasPrice\" gencodec:\"required\"`\r\n\tGasLimit     uint64          `json:\"gas\"      gencodec:\"required\"`\r\n\tRecipient    *common.Address `json:\"to\"       rlp:\"nil\"` // nil means contract creation\r\n\tAmount       *big.Int        `json:\"value\"    gencodec:\"required\"`\r\n\tPayload      []byte          `json:\"input\"    gencodec:\"required\"`\r\n\r\n\t// Signature values\r\n\tV *big.Int `json:\"v\" gencodec:\"required\"`\r\n\tR *big.Int `json:\"r\" gencodec:\"required\"`\r\n\tS *big.Int `json:\"s\" gencodec:\"required\"`\r\n\r\n\t// This is only used when marshaling to JSON.\r\n\tHash *common.Hash `json:\"hash\" rlp:\"-\"`\r\n}\r\n```\r\nHere's a random transaction I took from the network:\r\n```\r\n$ ./rlpdump -hex 0xf86b0484b2d05e0082520894e3b9b23682410a0a4fba28a1664548cdff11344a880de0b6b3a76400008026a085ff1ccb9d65ce94a80244cb82fa988367aef3515bc87aeba65cd3d85a638fc8a03b6aa7094ed92338c0367c16b35311e1bca2927a3628cafaaebf10eebccb0d10\r\n[\r\n  04,\r\n  b2d05e00,\r\n  5208,\r\n  e3b9b23682410a0a4fba28a1664548cdff11344a,\r\n  0de0b6b3a7640000,\r\n  \"\",\r\n  \"&\",\r\n  85ff1ccb9d65ce94a80244cb82fa988367aef3515bc87aeba65cd3d85a638fc8,\r\n  3b6aa7094ed92338c0367c16b35311e1bca2927a3628cafaaebf10eebccb0d10,\r\n]\r\n```\r\nFor some reason, whatever you used to sign it converted the recipient to string, not a sequence of bytes (4th field). What did you use to generate it?",
    "reactions": {
      "url": "https://api.github.com/repos/ethereum/go-ethereum/issues/comments/371756253/reactions",
      "total_count": 0,
      "+1": 0,
      "-1": 0,
      "laugh": 0,
      "hooray": 0,
      "confused": 0,
      "heart": 0,
      "rocket": 0,
      "eyes": 0
    },
    "performed_via_github_app": null
  },
  {
    "url": "https://api.github.com/repos/ethereum/go-ethereum/issues/comments/371771129",
    "html_url": "https://github.com/ethereum/go-ethereum/issues/16290#issuecomment-371771129",
    "issue_url": "https://api.github.com/repos/ethereum/go-ethereum/issues/16290",
    "id": 371771129,
    "node_id": "MDEyOklzc3VlQ29tbWVudDM3MTc3MTEyOQ==",
    "user": {
      "login": "acinmavi",
      "id": 11534046,
      "node_id": "MDQ6VXNlcjExNTM0MDQ2",
      "avatar_url": "https://avatars.githubusercontent.com/u/11534046?v=4",
      "gravatar_id": "",
      "url": "https://api.github.com/users/acinmavi",
      "html_url": "https://github.com/acinmavi",
      "followers_url": "https://api.github.com/users/acinmavi/followers",
      "following_url": "https://api.github.com/users/acinmavi/following{/other_user}",
      "gists_url": "https://api.github.com/users/acinmavi/gists{/gist_id}",
      "starred_url": "https://api.github.com/users/acinmavi/starred{/owner}{/repo}",
      "subscriptions_url": "https://api.github.com/users/acinmavi/subscriptions",
      "organizations_url": "https://api.github.com/users/acinmavi/orgs",
      "repos_url": "https://api.github.com/users/acinmavi/repos",
      "events_url": "https://api.github.com/users/acinmavi/events{/privacy}",
      "received_events_url": "https://api.github.com/users/acinmavi/received_events",
      "type": "User",
      "site_admin": false
    },
    "created_at": "2018-03-09T10:13:11Z",
    "updated_at": "2018-03-09T10:13:11Z",
    "author_association": "NONE",
    "body": "Thank you very much for your fast response , I try to implement by using ethereumj , as example in this [link](https://techblog.bozho.net/send-ethereum-transactions-java/) .\r\n`final Transaction tx = new Transaction(\r\n                nonce,\r\n                ByteUtil.bigIntegerToBytes(gasPrice),\r\n                ByteUtil.longToBytesNoLeadZeroes(gasLimit),\r\n                to.getBytes(StandardCharsets.UTF_8),\r\n                ByteUtil.bigIntegerToBytes(amount),\r\n                comment.getBytes(StandardCharsets.UTF_8),\r\n                networkID);\r\n        tx.sign(ECKey.fromPrivate(fromKey));`\r\nI try to convert receiver address to byte using String.getBytes(StandardCharsets.UTF_8). And after sign I will push via rpc api.\r\n\r\n",
    "reactions": {
      "url": "https://api.github.com/repos/ethereum/go-ethereum/issues/comments/371771129/reactions",
      "total_count": 0,
      "+1": 0,
      "-1": 0,
      "laugh": 0,
      "hooray": 0,
      "confused": 0,
      "heart": 0,
      "rocket": 0,
      "eyes": 0
    },
    "performed_via_github_app": null
  },
  {
    "url": "https://api.github.com/repos/ethereum/go-ethereum/issues/comments/371782166",
    "html_url": "https://github.com/ethereum/go-ethereum/issues/16290#issuecomment-371782166",
    "issue_url": "https://api.github.com/repos/ethereum/go-ethereum/issues/16290",
    "id": 371782166,
    "node_id": "MDEyOklzc3VlQ29tbWVudDM3MTc4MjE2Ng==",
    "user": {
      "login": "acinmavi",
      "id": 11534046,
      "node_id": "MDQ6VXNlcjExNTM0MDQ2",
      "avatar_url": "https://avatars.githubusercontent.com/u/11534046?v=4",
      "gravatar_id": "",
      "url": "https://api.github.com/users/acinmavi",
      "html_url": "https://github.com/acinmavi",
      "followers_url": "https://api.github.com/users/acinmavi/followers",
      "following_url": "https://api.github.com/users/acinmavi/following{/other_user}",
      "gists_url": "https://api.github.com/users/acinmavi/gists{/gist_id}",
      "starred_url": "https://api.github.com/users/acinmavi/starred{/owner}{/repo}",
      "subscriptions_url": "https://api.github.com/users/acinmavi/subscriptions",
      "organizations_url": "https://api.github.com/users/acinmavi/orgs",
      "repos_url": "https://api.github.com/users/acinmavi/repos",
      "events_url": "https://api.github.com/users/acinmavi/events{/privacy}",
      "received_events_url": "https://api.github.com/users/acinmavi/received_events",
      "type": "User",
      "site_admin": false
    },
    "created_at": "2018-03-09T11:01:27Z",
    "updated_at": "2018-03-09T11:02:29Z",
    "author_association": "NONE",
    "body": "Funny thing is , when I change function to get byte[] from String :\r\n`to.getBytes(StandardCharsets.UTF_8)===> Hex.decode(removePrefix(to)),`\r\nresult when send transaction is change :\r\n\r\n2018-03-09 17:49:11:857  INFO - XHttpClient [main] - start to http post, uri: http://xxxxxxxxxxx:8545 , headers [Content-Type: application/json] , body {\"id\":910131687428459192,\"jsonrpc\":\"2.0\",\"method\":\"eth_sendRawTransaction\",\"params\":[\"0xF87401847735940083030D4094A66C3DE8076E231D57A578D163A126DC975670F7880429993E8548A000884249545F434F52453DA089383754259BC95C57B0A7C7336685FBA815D68D9A9CFDC92672623514127D37A00F5E0AB39560816731E571EA4EAF6579D8365F96097FC14F0B2289121305CF8E\"]} , timeout 60000, \r\n\r\n2018-03-09 17:49:12:041  INFO - XHttpClients [main] - finish http request ,response status HTTP/1.1 200 OK , body {\"jsonrpc\":\"2.0\",\"id\":910131687428459192,\"error\":{\"code\":-32000,\"message\":\"invalid sender\"}}\r\n\r\nAnd dump rlp seem correct receiver address, but something still wrong. What is wrong with my request ?\r\n",
    "reactions": {
      "url": "https://api.github.com/repos/ethereum/go-ethereum/issues/comments/371782166/reactions",
      "total_count": 0,
      "+1": 0,
      "-1": 0,
      "laugh": 0,
      "hooray": 0,
      "confused": 0,
      "heart": 0,
      "rocket": 0,
      "eyes": 0
    },
    "performed_via_github_app": null
  },
  {
    "url": "https://api.github.com/repos/ethereum/go-ethereum/issues/comments/371786128",
    "html_url": "https://github.com/ethereum/go-ethereum/issues/16290#issuecomment-371786128",
    "issue_url": "https://api.github.com/repos/ethereum/go-ethereum/issues/16290",
    "id": 371786128,
    "node_id": "MDEyOklzc3VlQ29tbWVudDM3MTc4NjEyOA==",
    "user": {
      "login": "holiman",
      "id": 142290,
      "node_id": "MDQ6VXNlcjE0MjI5MA==",
      "avatar_url": "https://avatars.githubusercontent.com/u/142290?v=4",
      "gravatar_id": "",
      "url": "https://api.github.com/users/holiman",
      "html_url": "https://github.com/holiman",
      "followers_url": "https://api.github.com/users/holiman/followers",
      "following_url": "https://api.github.com/users/holiman/following{/other_user}",
      "gists_url": "https://api.github.com/users/holiman/gists{/gist_id}",
      "starred_url": "https://api.github.com/users/holiman/starred{/owner}{/repo}",
      "subscriptions_url": "https://api.github.com/users/holiman/subscriptions",
      "organizations_url": "https://api.github.com/users/holiman/orgs",
      "repos_url": "https://api.github.com/users/holiman/repos",
      "events_url": "https://api.github.com/users/holiman/events{/privacy}",
      "received_events_url": "https://api.github.com/users/holiman/received_events",
      "type": "User",
      "site_admin": false
    },
    "created_at": "2018-03-09T11:20:13Z",
    "updated_at": "2018-03-09T11:20:13Z",
    "author_association": "MEMBER",
    "body": "You're closer:\r\n\r\n```\r\n./rlpdump -hex 0xF87401847735940083030D4094A66C3DE8076E231D57A578D163A126DC975670F7880429993E8548A000884249545F434F52453DA089383754259BC95C57B0A7C7336685FBA815D68D9A9CFDC92672623514127D37A00F5E0AB39560816731E571EA4EAF6579D8365F96097FC14F0B2289121305CF8E\r\n[\r\n  01,\r\n  77359400,\r\n  030d40,\r\n  a66c3de8076e231d57a578d163a126dc975670f7,\r\n  0429993e8548a000,\r\n  \"BIT_CORE\",\r\n  \"=\",\r\n  89383754259bc95c57b0a7c7336685fba815d68d9a9cfdc92672623514127d37,\r\n  0f5e0ab39560816731e571ea4eaf6579d8365f96097fc14f0b2289121305cf8e,\r\n]\r\n```\r\n\r\nGeth doesn't seem to think that it's a valid signature : https://github.com/ethereum/go-ethereum/blob/d43ffdbf6a406839bbf54bdf76f5574345abdd57/core/tx_pool.go#L573 . I would guess that there's something wrong with the r,s,v. For reference, here's a tx from ropsten that I took from etherscan:\r\n\r\n```\r\n[\r\n  01,\r\n  02540be400,\r\n  5208,\r\n  ff2b5d4114190bb6447dbae098096fd274029535,\r\n  98a71ab9c1e4e000,\r\n  \"\",\r\n  1b,\r\n  881b372012946b0efa518cc850b0436afb87b48e3209ff524bf3815948ab9552,\r\n  3798e450d426c63491e35ee5e7be345928818ed879af0ac7d7843ac3b6eda0ed,\r\n]\r\n```\r\n",
    "reactions": {
      "url": "https://api.github.com/repos/ethereum/go-ethereum/issues/comments/371786128/reactions",
      "total_count": 0,
      "+1": 0,
      "-1": 0,
      "laugh": 0,
      "hooray": 0,
      "confused": 0,
      "heart": 0,
      "rocket": 0,
      "eyes": 0
    },
    "performed_via_github_app": null
  },
  {
    "url": "https://api.github.com/repos/ethereum/go-ethereum/issues/comments/371880278",
    "html_url": "https://github.com/ethereum/go-ethereum/issues/16290#issuecomment-371880278",
    "issue_url": "https://api.github.com/repos/ethereum/go-ethereum/issues/16290",
    "id": 371880278,
    "node_id": "MDEyOklzc3VlQ29tbWVudDM3MTg4MDI3OA==",
    "user": {
      "login": "karalabe",
      "id": 129561,
      "node_id": "MDQ6VXNlcjEyOTU2MQ==",
      "avatar_url": "https://avatars.githubusercontent.com/u/129561?v=4",
      "gravatar_id": "",
      "url": "https://api.github.com/users/karalabe",
      "html_url": "https://github.com/karalabe",
      "followers_url": "https://api.github.com/users/karalabe/followers",
      "following_url": "https://api.github.com/users/karalabe/following{/other_user}",
      "gists_url": "https://api.github.com/users/karalabe/gists{/gist_id}",
      "starred_url": "https://api.github.com/users/karalabe/starred{/owner}{/repo}",
      "subscriptions_url": "https://api.github.com/users/karalabe/subscriptions",
      "organizations_url": "https://api.github.com/users/karalabe/orgs",
      "repos_url": "https://api.github.com/users/karalabe/repos",
      "events_url": "https://api.github.com/users/karalabe/events{/privacy}",
      "received_events_url": "https://api.github.com/users/karalabe/received_events",
      "type": "User",
      "site_admin": false
    },
    "created_at": "2018-03-09T17:19:30Z",
    "updated_at": "2018-03-09T17:19:30Z",
    "author_association": "MEMBER",
    "body": "Make sure the chain ID is correct. If it's not, that might explain the signature rejection.",
    "reactions": {
      "url": "https://api.github.com/repos/ethereum/go-ethereum/issues/comments/371880278/reactions",
      "total_count": 0,
      "+1": 0,
      "-1": 0,
      "laugh": 0,
      "hooray": 0,
      "confused": 0,
      "heart": 0,
      "rocket": 0,
      "eyes": 0
    },
    "performed_via_github_app": null
  },
  {
    "url": "https://api.github.com/repos/ethereum/go-ethereum/issues/comments/380388206",
    "html_url": "https://github.com/ethereum/go-ethereum/issues/16290#issuecomment-380388206",
    "issue_url": "https://api.github.com/repos/ethereum/go-ethereum/issues/16290",
    "id": 380388206,
    "node_id": "MDEyOklzc3VlQ29tbWVudDM4MDM4ODIwNg==",
    "user": {
      "login": "no-response[bot]",
      "id": 32965360,
      "node_id": "MDM6Qm90MzI5NjUzNjA=",
      "avatar_url": "https://avatars.githubusercontent.com/u/26350515?v=4",
      "gravatar_id": "",
      "url": "https://api.github.com/users/no-response%5Bbot%5D",
      "html_url": "https://github.com/apps/no-response",
      "followers_url": "https://api.github.com/users/no-response%5Bbot%5D/followers",
      "following_url": "https://api.github.com/users/no-response%5Bbot%5D/following{/other_user}",
      "gists_url": "https://api.github.com/users/no-response%5Bbot%5D/gists{/gist_id}",
      "starred_url": "https://api.github.com/users/no-response%5Bbot%5D/starred{/owner}{/repo}",
      "subscriptions_url": "https://api.github.com/users/no-response%5Bbot%5D/subscriptions",
      "organizations_url": "https://api.github.com/users/no-response%5Bbot%5D/orgs",
      "repos_url": "https://api.github.com/users/no-response%5Bbot%5D/repos",
      "events_url": "https://api.github.com/users/no-response%5Bbot%5D/events{/privacy}",
      "received_events_url": "https://api.github.com/users/no-response%5Bbot%5D/received_events",
      "type": "Bot",
      "site_admin": false
    },
    "created_at": "2018-04-11T09:28:11Z",
    "updated_at": "2018-04-11T09:28:11Z",
    "author_association": "NONE",
    "body": "This issue has been automatically closed because there has been no response to our request for more information from the original author. With only the information that is currently in the issue, we don't have enough information to take action. Please reach out if you have or find the answers we need so that we can investigate further.\n",
    "reactions": {
      "url": "https://api.github.com/repos/ethereum/go-ethereum/issues/comments/380388206/reactions",
      "total_count": 0,
      "+1": 0,
      "-1": 0,
      "laugh": 0,
      "hooray": 0,
      "confused": 0,
      "heart": 0,
      "rocket": 0,
      "eyes": 0
    },
    "performed_via_github_app": null
  },
  {
    "url": "https://api.github.com/repos/ethereum/go-ethereum/issues/comments/579622015",
    "html_url": "https://github.com/ethereum/go-ethereum/issues/16290#issuecomment-579622015",
    "issue_url": "https://api.github.com/repos/ethereum/go-ethereum/issues/16290",
    "id": 579622015,
    "node_id": "MDEyOklzc3VlQ29tbWVudDU3OTYyMjAxNQ==",
    "user": {
      "login": "daithi-coombes",
      "id": 1945527,
      "node_id": "MDQ6VXNlcjE5NDU1Mjc=",
      "avatar_url": "https://avatars.githubusercontent.com/u/1945527?v=4",
      "gravatar_id": "",
      "url": "https://api.github.com/users/daithi-coombes",
      "html_url": "https://github.com/daithi-coombes",
      "followers_url": "https://api.github.com/users/daithi-coombes/followers",
      "following_url": "https://api.github.com/users/daithi-coombes/following{/other_user}",
      "gists_url": "https://api.github.com/users/daithi-coombes/gists{/gist_id}",
      "starred_url": "https://api.github.com/users/daithi-coombes/starred{/owner}{/repo}",
      "subscriptions_url": "https://api.github.com/users/daithi-coombes/subscriptions",
      "organizations_url": "https://api.github.com/users/daithi-coombes/orgs",
      "repos_url": "https://api.github.com/users/daithi-coombes/repos",
      "events_url": "https://api.github.com/users/daithi-coombes/events{/privacy}",
      "received_events_url": "https://api.github.com/users/daithi-coombes/received_events",
      "type": "User",
      "site_admin": false
    },
    "created_at": "2020-01-29T07:02:10Z",
    "updated_at": "2020-01-29T07:02:10Z",
    "author_association": "NONE",
    "body": "I'm reporting the same issue. Am working on a fork of Geth, so maybe issue is here?\r\n```\r\nGeth Version: 1.8.23-beta\r\nGo Version: 1.13.6\r\n```\r\n\r\nHere's the code I'm using:\r\n```\r\n\tstableTokenAddress := common.HexToAddress(\"0x5c7197e1147ebf98658a2a8bc3d32bebf1692829\")\r\n\ttokenInstance, err := contracts.NewStabletoken(stableTokenAddress, client)\r\n\tks := keystore.NewKeyStore(\r\n\t\t\"/path/to/keystore\",\r\n\t\tkeystore.LightScryptN,\r\n\t\tkeystore.LightScryptP)\r\n\r\n\t// get unlocked account\r\n\tvar account accounts.Account\r\n\tfor _, acc := range ks.Accounts() {\r\n\t\tif acc.Address.String() == address.String() {\r\n\t\t\taccount, err = ks.Find(acc)\r\n\t\t\tif err != nil {\r\n\t\t\t\treturn false, err\r\n\t\t\t}\r\n\t\t}\r\n\t}\r\n\t_ := ks.Unlock(account, \"********\")\r\n\r\n\ttxOpts, _ := bind.NewKeyStoreTransactor(ks, account)\r\n\tsession := &contracts.StabletokenSession{\r\n\t\tContract: tokenInstance,\r\n\t\tCallOpts: bind.CallOpts{\r\n\t\t\tPending: true,\r\n\t\t\tFrom:    address,\r\n\t\t},\r\n\t\tTransactOpts: *txOpts,\r\n\t}\r\n\r\n\ttx, err := session.Approve(address, amount)\r\n\tif err != nil {\r\n\t\tlog.Fatal(err)\r\n\t\treturn false, err\r\n\t}\r\n```\r\nReturning:\r\n```\r\nrlp: input string too short for common.Address, decoding into (types.Transaction)(types.txdata).Recipient\r\n```\r\nNo tx's being sent, that I can tell of.",
    "reactions": {
      "url": "https://api.github.com/repos/ethereum/go-ethereum/issues/comments/579622015/reactions",
      "total_count": 0,
      "+1": 0,
      "-1": 0,
      "laugh": 0,
      "hooray": 0,
      "confused": 0,
      "heart": 0,
      "rocket": 0,
      "eyes": 0
    },
    "performed_via_github_app": null
  }
]
