{
  "url": "https://api.github.com/repos/ethereum/go-ethereum/issues/16747",
  "repository_url": "https://api.github.com/repos/ethereum/go-ethereum",
  "labels_url": "https://api.github.com/repos/ethereum/go-ethereum/issues/16747/labels{/name}",
  "comments_url": "https://api.github.com/repos/ethereum/go-ethereum/issues/16747/comments",
  "events_url": "https://api.github.com/repos/ethereum/go-ethereum/issues/16747/events",
  "html_url": "https://github.com/ethereum/go-ethereum/issues/16747",
  "id": 323892905,
  "node_id": "MDU6SXNzdWUzMjM4OTI5MDU=",
  "number": 16747,
  "title": "when  I use eth_sign generate signer, then I cerate transactions WithSignature,but final I sendRawTransactions answer \"insufficient funds for gas * price + value\"",
  "user": {
    "login": "qq940043871",
    "id": 3883919,
    "node_id": "MDQ6VXNlcjM4ODM5MTk=",
    "avatar_url": "https://avatars.githubusercontent.com/u/3883919?v=4",
    "gravatar_id": "",
    "url": "https://api.github.com/users/qq940043871",
    "html_url": "https://github.com/qq940043871",
    "followers_url": "https://api.github.com/users/qq940043871/followers",
    "following_url": "https://api.github.com/users/qq940043871/following{/other_user}",
    "gists_url": "https://api.github.com/users/qq940043871/gists{/gist_id}",
    "starred_url": "https://api.github.com/users/qq940043871/starred{/owner}{/repo}",
    "subscriptions_url": "https://api.github.com/users/qq940043871/subscriptions",
    "organizations_url": "https://api.github.com/users/qq940043871/orgs",
    "repos_url": "https://api.github.com/users/qq940043871/repos",
    "events_url": "https://api.github.com/users/qq940043871/events{/privacy}",
    "received_events_url": "https://api.github.com/users/qq940043871/received_events",
    "type": "User",
    "site_admin": false
  },
  "labels": [

  ],
  "state": "closed",
  "locked": false,
  "assignee": null,
  "assignees": [

  ],
  "milestone": null,
  "comments": 9,
  "created_at": "2018-05-17T06:50:47Z",
  "updated_at": "2022-08-05T02:38:47Z",
  "closed_at": "2018-05-22T00:47:15Z",
  "author_association": "NONE",
  "active_lock_reason": null,
  "body": "Hi there,\r\n\r\nplease note that this is an issue tracker reserved for bug reports and feature requests.\r\n\r\nFor general questions please use the gitter channel or the Ethereum stack exchange at https://ethereum.stackexchange.com.\r\n\r\n#### System information\r\n\r\nGeth version: `1.8.3`\r\nOS & Version: Windows\r\nCommit hash : (if `develop`)\r\n\r\n#### Expected behaviour\r\nsend_rawTransaciton success\r\n\r\n#### Actual behaviour\r\ninsufficient funds for gas * price + value\r\n\r\n#### Steps to reproduce the behaviour\r\nfirst:create transaction\r\nsecond:get eth_sign \r\n        r = new(big.Int).SetBytes(sig[:32])\r\n\ts = new(big.Int).SetBytes(sig[32:64])\r\n\tv = new(big.Int).SetBytes([]byte{sig[64] + 27})\r\nthres: send_rawTransaciton:\r\n        answer \"insufficient funds for gas * price + value\"\r\n\r\nwhen i use rlpdump,i can,t get the correct fromAddr\r\n\r\n#### Backtrace\r\n\r\n````\r\n[backtrace]\r\n````\r\n",
  "closed_by": {
    "login": "qq940043871",
    "id": 3883919,
    "node_id": "MDQ6VXNlcjM4ODM5MTk=",
    "avatar_url": "https://avatars.githubusercontent.com/u/3883919?v=4",
    "gravatar_id": "",
    "url": "https://api.github.com/users/qq940043871",
    "html_url": "https://github.com/qq940043871",
    "followers_url": "https://api.github.com/users/qq940043871/followers",
    "following_url": "https://api.github.com/users/qq940043871/following{/other_user}",
    "gists_url": "https://api.github.com/users/qq940043871/gists{/gist_id}",
    "starred_url": "https://api.github.com/users/qq940043871/starred{/owner}{/repo}",
    "subscriptions_url": "https://api.github.com/users/qq940043871/subscriptions",
    "organizations_url": "https://api.github.com/users/qq940043871/orgs",
    "repos_url": "https://api.github.com/users/qq940043871/repos",
    "events_url": "https://api.github.com/users/qq940043871/events{/privacy}",
    "received_events_url": "https://api.github.com/users/qq940043871/received_events",
    "type": "User",
    "site_admin": false
  },
  "reactions": {
    "url": "https://api.github.com/repos/ethereum/go-ethereum/issues/16747/reactions",
    "total_count": 0,
    "+1": 0,
    "-1": 0,
    "laugh": 0,
    "hooray": 0,
    "confused": 0,
    "heart": 0,
    "rocket": 0,
    "eyes": 0
  },
  "timeline_url": "https://api.github.com/repos/ethereum/go-ethereum/issues/16747/timeline",
  "performed_via_github_app": null,
  "state_reason": "completed"
}
[
  {
    "url": "https://api.github.com/repos/ethereum/go-ethereum/issues/comments/389851193",
    "html_url": "https://github.com/ethereum/go-ethereum/issues/16747#issuecomment-389851193",
    "issue_url": "https://api.github.com/repos/ethereum/go-ethereum/issues/16747",
    "id": 389851193,
    "node_id": "MDEyOklzc3VlQ29tbWVudDM4OTg1MTE5Mw==",
    "user": {
      "login": "ligi",
      "id": 111600,
      "node_id": "MDQ6VXNlcjExMTYwMA==",
      "avatar_url": "https://avatars.githubusercontent.com/u/111600?v=4",
      "gravatar_id": "",
      "url": "https://api.github.com/users/ligi",
      "html_url": "https://github.com/ligi",
      "followers_url": "https://api.github.com/users/ligi/followers",
      "following_url": "https://api.github.com/users/ligi/following{/other_user}",
      "gists_url": "https://api.github.com/users/ligi/gists{/gist_id}",
      "starred_url": "https://api.github.com/users/ligi/starred{/owner}{/repo}",
      "subscriptions_url": "https://api.github.com/users/ligi/subscriptions",
      "organizations_url": "https://api.github.com/users/ligi/orgs",
      "repos_url": "https://api.github.com/users/ligi/repos",
      "events_url": "https://api.github.com/users/ligi/events{/privacy}",
      "received_events_url": "https://api.github.com/users/ligi/received_events",
      "type": "User",
      "site_admin": false
    },
    "created_at": "2018-05-17T12:36:21Z",
    "updated_at": "2018-05-17T12:36:21Z",
    "author_association": "MEMBER",
    "body": "cab you please add the raw transaction here?",
    "reactions": {
      "url": "https://api.github.com/repos/ethereum/go-ethereum/issues/comments/389851193/reactions",
      "total_count": 0,
      "+1": 0,
      "-1": 0,
      "laugh": 0,
      "hooray": 0,
      "confused": 0,
      "heart": 0,
      "rocket": 0,
      "eyes": 0
    },
    "performed_via_github_app": null
  },
  {
    "url": "https://api.github.com/repos/ethereum/go-ethereum/issues/comments/390105145",
    "html_url": "https://github.com/ethereum/go-ethereum/issues/16747#issuecomment-390105145",
    "issue_url": "https://api.github.com/repos/ethereum/go-ethereum/issues/16747",
    "id": 390105145,
    "node_id": "MDEyOklzc3VlQ29tbWVudDM5MDEwNTE0NQ==",
    "user": {
      "login": "qq940043871",
      "id": 3883919,
      "node_id": "MDQ6VXNlcjM4ODM5MTk=",
      "avatar_url": "https://avatars.githubusercontent.com/u/3883919?v=4",
      "gravatar_id": "",
      "url": "https://api.github.com/users/qq940043871",
      "html_url": "https://github.com/qq940043871",
      "followers_url": "https://api.github.com/users/qq940043871/followers",
      "following_url": "https://api.github.com/users/qq940043871/following{/other_user}",
      "gists_url": "https://api.github.com/users/qq940043871/gists{/gist_id}",
      "starred_url": "https://api.github.com/users/qq940043871/starred{/owner}{/repo}",
      "subscriptions_url": "https://api.github.com/users/qq940043871/subscriptions",
      "organizations_url": "https://api.github.com/users/qq940043871/orgs",
      "repos_url": "https://api.github.com/users/qq940043871/repos",
      "events_url": "https://api.github.com/users/qq940043871/events{/privacy}",
      "received_events_url": "https://api.github.com/users/qq940043871/received_events",
      "type": "User",
      "site_admin": false
    },
    "created_at": "2018-05-18T06:13:06Z",
    "updated_at": "2018-05-18T06:23:32Z",
    "author_association": "NONE",
    "body": "1. create private network from genesis\r\n```javascript\r\n{\r\n  \"config\": {\r\n        \"chainId\": 10,\r\n        \"homesteadBlock\": 0,\r\n        \"eip155Block\": 0,\r\n        \"eip158Block\": 0\r\n    },\r\n  \"alloc\"      : {},\r\n  \"coinbase\"   : \"0x0000000000000000000000000000000000000000\",\r\n  \"difficulty\" : \"0x02000\",\r\n  \"extraData\"  : \"\",\r\n  \"gasLimit\"   : \"0x2fefd8\",\r\n  \"nonce\"      : \"0x0000000000000042\",\r\n  \"mixhash\"    : \"0x0000000000000000000000000000000000000000000000000000000000000000\",\r\n  \"parentHash\" : \"0x0000000000000000000000000000000000000000000000000000000000000000\",\r\n  \"timestamp\"  : \"0x00\"\r\n}\r\n\r\n```\r\n2. start geth from config.toml console\r\n```\r\n# Note: this config doesn't contain the genesis block.\r\n\r\n[Eth]\r\nNetworkId = 2018\r\nSyncMode = \"full\"\r\nLightPeers = 100\r\nDatabaseCache = 768\r\nGasPrice = 18000000000\r\nEnablePreimageRecording = false\r\n\r\n[Eth.Ethash]\r\nCacheDir = \"ethash\"\r\nCachesInMem = 2\r\nCachesOnDisk = 3\r\nDatasetDir = \"D://walletPeer//ETH//Geth//.ethash\"\r\nDatasetsInMem = 1\r\nDatasetsOnDisk = 2\r\nPowMode = 0\r\n\r\n[Eth.TxPool]\r\nNoLocals = false\r\nJournal = \"transactions.rlp\"\r\nRejournal = 3600000000000\r\nPriceLimit = 1\r\nPriceBump = 10\r\nAccountSlots = 16\r\nGlobalSlots = 4096\r\nAccountQueue = 64\r\nGlobalQueue = 1024\r\nLifetime = 10800000000000\r\n\r\n[Eth.GPO]\r\nBlocks = 20\r\nPercentile = 60\r\n\r\n[Shh]\r\nMaxMessageSize = 1048576\r\nMinimumAcceptedPOW = 2e-01\r\n\r\n[Node]\r\nDataDir = \"D://walletPeer//ETH//Geth//gethblock\"\r\nIPCPath = \"geth.ipc\"\r\nHTTPHost = \"localhost\"\r\nHTTPPort = 8545\r\nHTTPVirtualHosts = [\"localhost\"]\r\nHTTPModules = [\"db\", \"eth\", \"net\", \"web3\", \"personal\", \"admin\", \"miner\"]\r\nWSPort = 8080\r\nWSModules = [\"net\", \"web3\", \"eth\", \"shh\"]\r\n\r\n[Node.P2P]\r\nMaxPeers = 25\r\nNoDiscovery = true\r\nStaticNodes = []\r\nTrustedNodes = []\r\nListenAddr = \":30303\"\r\nEnableMsgEvents = false\r\n\r\n[Dashboard]\r\nHost = \"localhost\"\r\nPort = 8080\r\nRefresh = 5000000000\r\n\r\n```\r\n3. personal.newAddress('haswhere');\r\n```java\r\nString fromAddr =\"0x6a81822d75a827fee418e8bae563f8da7d3d6fcf\";\r\n\tString toAddr = \"0x899bf23c235ffa1daaa735cc5443b2a7ef068973\";\r\n```\r\n4. four: miner.start(2) generate 5 block\r\n\r\n5. five: I # programming use web3j of java\r\n```java\r\n@Test\r\n\tpublic void createRawTx() throws Exception {\r\n\t\tBigInteger value = Convert.toWei(\"1\", Convert.Unit.ETHER).toBigInteger();\r\n\t\tBigInteger nonce = web3j.ethGetTransactionCount(fromAddr, DefaultBlockParameterName.PENDING).send().getTransactionCount();\r\n\t\tTransaction tx = Transaction.createEtherTransaction(fromAddr,nonce, BigInteger.valueOf(1800000000), BigInteger.valueOf(1000000), toAddr, value);\r\n\t\t// 7.创建交易并转化为16进制\r\n\t\tRawTransaction rawTransaction = RawTransaction.createEtherTransaction(nonce, BigInteger.valueOf(1800000000), BigInteger.valueOf(1000000), toAddr, value);\r\n\t\tbyte[] encoded = TransactionEncoder.encode(rawTransaction);\r\n\t\tString hex = Numeric.toHexString(encoded);\r\n\t\tSystem.out.println(\"hex:\" + hex);\r\n\t}\r\n```\r\n```java\r\n@Test\r\n\tpublic void eth_sign() throws Exception {\r\n\t\tString hex =\"0xe980846b49d200830f424094899bf23c235ffa1daaa735cc5443b2a7ef068973880de0b6b3a764000080\";\r\n\t\tboolean unlock = admin.personalUnlockAccount(fromAddr, \"haswhere\").send().accountUnlocked();\r\n\t\tSystem.out.println(\"Hash.sha3String(hex):\"+Hash.sha3String(hex));\r\n\t\tEthSign ethSign = web3j.ethSign(fromAddr, Hash.sha3String(hex)).send();\r\n\t\tString signatureData = ethSign.getSignature();\r\n\t\tSystem.out.println(\"signatureData:\"+signatureData);\r\n\t\tbyte[] signByte = Numeric.hexStringToByteArray(signatureData);\r\n\t\tBigInteger R = Numeric.toBigInt(signByte, 0, 32);\r\n\t\tBigInteger S = Numeric.toBigInt(signByte, 32, 32);\r\n\t\tBigInteger V = Numeric.toBigInt(signByte, 64, 1);\r\n\t\tRlpList rlpList = RlpDecoder.decode(Numeric.hexStringToByteArray(hex));\r\n\t\tRlpList rlpValues = (RlpList) rlpList.getValues().get(0);\r\n\t\tList<RlpType> values = rlpValues.getValues();\r\n\t\tSystem.out.println(\"values.size:\"+values.size());\r\n\t\tif (signatureData != null) {\r\n\t\t\tvalues.add(RlpString.create(V));\r\n\t\t\tvalues.add(RlpString.create(Bytes.trimLeadingZeroes(R.toByteArray())));\r\n\t\t\tvalues.add(RlpString.create(Bytes.trimLeadingZeroes(S.toByteArray())));\r\n\t\t}\r\n\t\tString signTx = Numeric.toHexString(RlpEncoder.encode(new RlpList(values)));\r\n\t\tSystem.out.println(\"signTx:\"+signTx);\r\n\t}\r\n```\r\n\r\n    @Test\r\n    \tpublic void eth_sendRawTx() throws Exception {\r\n    \t\tString signData=\"0xf86c80846b49d200830f424094899bf23c235ffa1daaa735cc5443b2a7ef068973880de0b6b3a7640000801ca0bd5fda7f57b6392752045b0b37dc51ea7643de9edc71de80912e267897aab8a1a0423b972540992ab40189340f3fe1b99cea3c23d9727649150fdd604efa030246\";\r\n    \t\tEthSendTransaction ethSendTransaction = web3j.ethSendRawTransaction(signData).send();\r\n    \t\tif(ethSendTransaction.hasError()){\r\n    \t\t\tSystem.out.println(ethSendTransaction.getError().getMessage());\r\n    \t\t}else{\r\n    \t\t\tSystem.out.println(ethSendTransaction.getTransactionHash());\r\n    \t\t}\r\n    \t}\r\n\r\n6. Above result is # \"insufficient funds for gas * price + value\":but when use the eth_sendTx(),is works well.\r\n    \r\n@Test\r\n    \tpublic void eth_sendTx() throws Exception {\r\n    \t\tboolean unlock = admin.personalUnlockAccount(fromAddr, \"haswhere\").send().accountUnlocked();\r\n    \t\tBigInteger value = Convert.toWei(\"1\", Convert.Unit.ETHER).toBigInteger();\r\n    \t\tBigInteger nonce = web3j.ethGetTransactionCount(fromAddr, DefaultBlockParameterName.PENDING).sendAsync().get().getTransactionCount();\r\n    \t\tTransaction transaction = Transaction.createEtherTransaction(fromAddr, nonce, BigInteger.valueOf(1800000000), BigInteger.valueOf(1000000), toAddr, value);\r\n    \t\tEthSendTransaction ethSendTransaction = web3j.ethSendTransaction(transaction).send();\r\n    \t\tif(ethSendTransaction.hasError()){\r\n    \t\t\tSystem.out.println(ethSendTransaction.getError().getMessage());\r\n    \t\t}else{\r\n    \t\t\tSystem.out.println(ethSendTransaction.getTransactionHash());\r\n    \t\t}\r\n    \t}\r\n7. now I don't know What caused the problem? is web3j or eth_sign,eth_sendRawTx is different from eth_sendTx\r\n\r\nThankyou very much!\r\n\r\n",
    "reactions": {
      "url": "https://api.github.com/repos/ethereum/go-ethereum/issues/comments/390105145/reactions",
      "total_count": 0,
      "+1": 0,
      "-1": 0,
      "laugh": 0,
      "hooray": 0,
      "confused": 0,
      "heart": 0,
      "rocket": 0,
      "eyes": 0
    },
    "performed_via_github_app": null
  },
  {
    "url": "https://api.github.com/repos/ethereum/go-ethereum/issues/comments/390106815",
    "html_url": "https://github.com/ethereum/go-ethereum/issues/16747#issuecomment-390106815",
    "issue_url": "https://api.github.com/repos/ethereum/go-ethereum/issues/16747",
    "id": 390106815,
    "node_id": "MDEyOklzc3VlQ29tbWVudDM5MDEwNjgxNQ==",
    "user": {
      "login": "qq940043871",
      "id": 3883919,
      "node_id": "MDQ6VXNlcjM4ODM5MTk=",
      "avatar_url": "https://avatars.githubusercontent.com/u/3883919?v=4",
      "gravatar_id": "",
      "url": "https://api.github.com/users/qq940043871",
      "html_url": "https://github.com/qq940043871",
      "followers_url": "https://api.github.com/users/qq940043871/followers",
      "following_url": "https://api.github.com/users/qq940043871/following{/other_user}",
      "gists_url": "https://api.github.com/users/qq940043871/gists{/gist_id}",
      "starred_url": "https://api.github.com/users/qq940043871/starred{/owner}{/repo}",
      "subscriptions_url": "https://api.github.com/users/qq940043871/subscriptions",
      "organizations_url": "https://api.github.com/users/qq940043871/orgs",
      "repos_url": "https://api.github.com/users/qq940043871/repos",
      "events_url": "https://api.github.com/users/qq940043871/events{/privacy}",
      "received_events_url": "https://api.github.com/users/qq940043871/received_events",
      "type": "User",
      "site_admin": false
    },
    "created_at": "2018-05-18T06:22:50Z",
    "updated_at": "2018-05-18T06:22:50Z",
    "author_association": "NONE",
    "body": "the chainId and network Whether it will lead to this problem,the R,S,V\r\n\r\n1. when I eth_sign,I found \r\n```msg := fmt.Sprintf(\"\\x19Ethereum Signed Message:\\n%d%s\", len(data), data)```\r\n\r\n2.but I eth_sendTx,i don,t found the code.so I doubt this leads to problems that the rawTx hash is different .\r\n\r\n3.i can't recover the correct address through 'recoverPlain'\r\n```go\r\nfunc recoverPlain(sighash common.Hash, R, S, Vb *big.Int, homestead bool) (common.Address, error) {\r\n\tif Vb.BitLen() > 8 {\r\n\t\treturn common.Address{}, ErrInvalidSig\r\n\t}\r\n\tV := byte(Vb.Uint64() - 27)\r\n\tif !crypto.ValidateSignatureValues(V, R, S, homestead) {\r\n\t\treturn common.Address{}, ErrInvalidSig\r\n\t}\r\n\t// encode the snature in uncompressed format\r\n\tr, s := R.Bytes(), S.Bytes()\r\n\tsig := make([]byte, 65)\r\n\tcopy(sig[32-len(r):32], r)\r\n\tcopy(sig[64-len(s):64], s)\r\n\tsig[64] = V\r\n\tfmt.Printf(\"%x\\n\", sig)\r\n\tfmt.Printf(\"%x\\n\", sighash)\r\n\t// recover the public key from the snature\r\n\tpub, err := crypto.Ecrecover(sighash[:], sig)\r\n\tif err != nil {\r\n\t\treturn common.Address{}, err\r\n\t}\r\n\tif len(pub) == 0 || pub[0] != 4 {\r\n\t\treturn common.Address{}, errors.New(\"invalid public key\")\r\n\t}\r\n\tvar addr common.Address\r\n\tcopy(addr[:], crypto.Keccak256(pub[1:])[12:])\r\n\treturn addr, nil\r\n}\r\n```\r\n",
    "reactions": {
      "url": "https://api.github.com/repos/ethereum/go-ethereum/issues/comments/390106815/reactions",
      "total_count": 0,
      "+1": 0,
      "-1": 0,
      "laugh": 0,
      "hooray": 0,
      "confused": 0,
      "heart": 0,
      "rocket": 0,
      "eyes": 0
    },
    "performed_via_github_app": null
  },
  {
    "url": "https://api.github.com/repos/ethereum/go-ethereum/issues/comments/390107746",
    "html_url": "https://github.com/ethereum/go-ethereum/issues/16747#issuecomment-390107746",
    "issue_url": "https://api.github.com/repos/ethereum/go-ethereum/issues/16747",
    "id": 390107746,
    "node_id": "MDEyOklzc3VlQ29tbWVudDM5MDEwNzc0Ng==",
    "user": {
      "login": "qq940043871",
      "id": 3883919,
      "node_id": "MDQ6VXNlcjM4ODM5MTk=",
      "avatar_url": "https://avatars.githubusercontent.com/u/3883919?v=4",
      "gravatar_id": "",
      "url": "https://api.github.com/users/qq940043871",
      "html_url": "https://github.com/qq940043871",
      "followers_url": "https://api.github.com/users/qq940043871/followers",
      "following_url": "https://api.github.com/users/qq940043871/following{/other_user}",
      "gists_url": "https://api.github.com/users/qq940043871/gists{/gist_id}",
      "starred_url": "https://api.github.com/users/qq940043871/starred{/owner}{/repo}",
      "subscriptions_url": "https://api.github.com/users/qq940043871/subscriptions",
      "organizations_url": "https://api.github.com/users/qq940043871/orgs",
      "repos_url": "https://api.github.com/users/qq940043871/repos",
      "events_url": "https://api.github.com/users/qq940043871/events{/privacy}",
      "received_events_url": "https://api.github.com/users/qq940043871/received_events",
      "type": "User",
      "site_admin": false
    },
    "created_at": "2018-05-18T06:28:00Z",
    "updated_at": "2018-05-18T06:28:00Z",
    "author_association": "NONE",
    "body": "8.the # constructor of RawTransaction and Transaction\r\n```java\r\n public Transaction(String from, BigInteger nonce, BigInteger gasPrice, BigInteger gasLimit,\r\n                       String to, BigInteger value, String data) {\r\n        this.from = from;\r\n        this.to = to;\r\n        this.gas = gasLimit;\r\n        this.gasPrice = gasPrice;\r\n        this.value = value;\r\n\r\n        if (data != null) {\r\n            this.data = Numeric.prependHexPrefix(data);\r\n        }\r\n\r\n        this.nonce = nonce;\r\n    }\r\n\r\n private RawTransaction(BigInteger nonce, BigInteger gasPrice, BigInteger gasLimit, String to,\r\n                           BigInteger value, String data) {\r\n        this.nonce = nonce;\r\n        this.gasPrice = gasPrice;\r\n        this.gasLimit = gasLimit;\r\n        this.to = to;\r\n        this.value = value;\r\n\r\n        if (data != null) {\r\n            this.data = Numeric.cleanHexPrefix(data);\r\n        }\r\n    }\r\n```",
    "reactions": {
      "url": "https://api.github.com/repos/ethereum/go-ethereum/issues/comments/390107746/reactions",
      "total_count": 0,
      "+1": 0,
      "-1": 0,
      "laugh": 0,
      "hooray": 0,
      "confused": 0,
      "heart": 0,
      "rocket": 0,
      "eyes": 0
    },
    "performed_via_github_app": null
  },
  {
    "url": "https://api.github.com/repos/ethereum/go-ethereum/issues/comments/390117878",
    "html_url": "https://github.com/ethereum/go-ethereum/issues/16747#issuecomment-390117878",
    "issue_url": "https://api.github.com/repos/ethereum/go-ethereum/issues/16747",
    "id": 390117878,
    "node_id": "MDEyOklzc3VlQ29tbWVudDM5MDExNzg3OA==",
    "user": {
      "login": "karalabe",
      "id": 129561,
      "node_id": "MDQ6VXNlcjEyOTU2MQ==",
      "avatar_url": "https://avatars.githubusercontent.com/u/129561?v=4",
      "gravatar_id": "",
      "url": "https://api.github.com/users/karalabe",
      "html_url": "https://github.com/karalabe",
      "followers_url": "https://api.github.com/users/karalabe/followers",
      "following_url": "https://api.github.com/users/karalabe/following{/other_user}",
      "gists_url": "https://api.github.com/users/karalabe/gists{/gist_id}",
      "starred_url": "https://api.github.com/users/karalabe/starred{/owner}{/repo}",
      "subscriptions_url": "https://api.github.com/users/karalabe/subscriptions",
      "organizations_url": "https://api.github.com/users/karalabe/orgs",
      "repos_url": "https://api.github.com/users/karalabe/repos",
      "events_url": "https://api.github.com/users/karalabe/events{/privacy}",
      "received_events_url": "https://api.github.com/users/karalabe/received_events",
      "type": "User",
      "site_admin": false
    },
    "created_at": "2018-05-18T07:17:57Z",
    "updated_at": "2018-05-18T07:17:57Z",
    "author_association": "MEMBER",
    "body": "Why did you modify the signature?\r\n\r\n```\r\nv = new(big.Int).SetBytes([]byte{sig[64] + 27})\r\n```",
    "reactions": {
      "url": "https://api.github.com/repos/ethereum/go-ethereum/issues/comments/390117878/reactions",
      "total_count": 1,
      "+1": 1,
      "-1": 0,
      "laugh": 0,
      "hooray": 0,
      "confused": 0,
      "heart": 0,
      "rocket": 0,
      "eyes": 0
    },
    "performed_via_github_app": null
  },
  {
    "url": "https://api.github.com/repos/ethereum/go-ethereum/issues/comments/390122328",
    "html_url": "https://github.com/ethereum/go-ethereum/issues/16747#issuecomment-390122328",
    "issue_url": "https://api.github.com/repos/ethereum/go-ethereum/issues/16747",
    "id": 390122328,
    "node_id": "MDEyOklzc3VlQ29tbWVudDM5MDEyMjMyOA==",
    "user": {
      "login": "qq940043871",
      "id": 3883919,
      "node_id": "MDQ6VXNlcjM4ODM5MTk=",
      "avatar_url": "https://avatars.githubusercontent.com/u/3883919?v=4",
      "gravatar_id": "",
      "url": "https://api.github.com/users/qq940043871",
      "html_url": "https://github.com/qq940043871",
      "followers_url": "https://api.github.com/users/qq940043871/followers",
      "following_url": "https://api.github.com/users/qq940043871/following{/other_user}",
      "gists_url": "https://api.github.com/users/qq940043871/gists{/gist_id}",
      "starred_url": "https://api.github.com/users/qq940043871/starred{/owner}{/repo}",
      "subscriptions_url": "https://api.github.com/users/qq940043871/subscriptions",
      "organizations_url": "https://api.github.com/users/qq940043871/orgs",
      "repos_url": "https://api.github.com/users/qq940043871/repos",
      "events_url": "https://api.github.com/users/qq940043871/events{/privacy}",
      "received_events_url": "https://api.github.com/users/qq940043871/received_events",
      "type": "User",
      "site_admin": false
    },
    "created_at": "2018-05-18T07:37:37Z",
    "updated_at": "2018-05-18T07:37:37Z",
    "author_association": "NONE",
    "body": "I don't change the code, it is the code  /src/github.com/ethereum/go-ethereum/core/types/transaction_signing.go    func recoverPlain(sighash common.Hash, R, S, Vb *big.Int, homestead bool) (common.Address, error) {}",
    "reactions": {
      "url": "https://api.github.com/repos/ethereum/go-ethereum/issues/comments/390122328/reactions",
      "total_count": 0,
      "+1": 0,
      "-1": 0,
      "laugh": 0,
      "hooray": 0,
      "confused": 0,
      "heart": 0,
      "rocket": 0,
      "eyes": 0
    },
    "performed_via_github_app": null
  },
  {
    "url": "https://api.github.com/repos/ethereum/go-ethereum/issues/comments/390124419",
    "html_url": "https://github.com/ethereum/go-ethereum/issues/16747#issuecomment-390124419",
    "issue_url": "https://api.github.com/repos/ethereum/go-ethereum/issues/16747",
    "id": 390124419,
    "node_id": "MDEyOklzc3VlQ29tbWVudDM5MDEyNDQxOQ==",
    "user": {
      "login": "qq940043871",
      "id": 3883919,
      "node_id": "MDQ6VXNlcjM4ODM5MTk=",
      "avatar_url": "https://avatars.githubusercontent.com/u/3883919?v=4",
      "gravatar_id": "",
      "url": "https://api.github.com/users/qq940043871",
      "html_url": "https://github.com/qq940043871",
      "followers_url": "https://api.github.com/users/qq940043871/followers",
      "following_url": "https://api.github.com/users/qq940043871/following{/other_user}",
      "gists_url": "https://api.github.com/users/qq940043871/gists{/gist_id}",
      "starred_url": "https://api.github.com/users/qq940043871/starred{/owner}{/repo}",
      "subscriptions_url": "https://api.github.com/users/qq940043871/subscriptions",
      "organizations_url": "https://api.github.com/users/qq940043871/orgs",
      "repos_url": "https://api.github.com/users/qq940043871/repos",
      "events_url": "https://api.github.com/users/qq940043871/events{/privacy}",
      "received_events_url": "https://api.github.com/users/qq940043871/received_events",
      "type": "User",
      "site_admin": false
    },
    "created_at": "2018-05-18T07:46:47Z",
    "updated_at": "2018-05-18T07:46:47Z",
    "author_association": "NONE",
    "body": "I change the geth code:fmt.Printf(\"%v\\n\", tx)\r\nthe correct tx:\r\n`&{{0 0x13047dc0 1000000 0x12f9e540 0x13047d90 [] 0x13047ef0 0x13047ec0 0x13047ed0 <nil>} {{} <nil>} {{} <nil>} {{} \r\n<nil>}}9572a2b721c3a6ed1d5edfcebdb6ddd0164608bbf76c26a3111421c728cea75d7a2c8d29654401e90e5287c667428a6d1268e5cf67f4cd31123025b16d3e570001\r\nf97a214da52ede8f5632a29f03e81b640dac16c240cc60e701ce0e5fb616b918`\r\n\r\nthe wrong tx:\r\n`&{{0 0x12f92370 1000000 0x12fda200 0x12f92390 [] 0x12f923a0 0x12f923f0 0x12f92410 <nil>} {{} <nil>} {{} 110} {{} <nil>}}bd5fda7f57b6392752045b0b37dc51ea7643de9edc71de80912e267897aab8a1423b972540992ab40189340f3fe1b99cea3c23d9727649150fdd604efa03024601\r\n64ef875f722486f943a36d8f164231fe8ae2126d3afc5dcc46fc9416bceed1da`\r\n",
    "reactions": {
      "url": "https://api.github.com/repos/ethereum/go-ethereum/issues/comments/390124419/reactions",
      "total_count": 0,
      "+1": 0,
      "-1": 0,
      "laugh": 0,
      "hooray": 0,
      "confused": 0,
      "heart": 0,
      "rocket": 0,
      "eyes": 0
    },
    "performed_via_github_app": null
  },
  {
    "url": "https://api.github.com/repos/ethereum/go-ethereum/issues/comments/390828001",
    "html_url": "https://github.com/ethereum/go-ethereum/issues/16747#issuecomment-390828001",
    "issue_url": "https://api.github.com/repos/ethereum/go-ethereum/issues/16747",
    "id": 390828001,
    "node_id": "MDEyOklzc3VlQ29tbWVudDM5MDgyODAwMQ==",
    "user": {
      "login": "qq940043871",
      "id": 3883919,
      "node_id": "MDQ6VXNlcjM4ODM5MTk=",
      "avatar_url": "https://avatars.githubusercontent.com/u/3883919?v=4",
      "gravatar_id": "",
      "url": "https://api.github.com/users/qq940043871",
      "html_url": "https://github.com/qq940043871",
      "followers_url": "https://api.github.com/users/qq940043871/followers",
      "following_url": "https://api.github.com/users/qq940043871/following{/other_user}",
      "gists_url": "https://api.github.com/users/qq940043871/gists{/gist_id}",
      "starred_url": "https://api.github.com/users/qq940043871/starred{/owner}{/repo}",
      "subscriptions_url": "https://api.github.com/users/qq940043871/subscriptions",
      "organizations_url": "https://api.github.com/users/qq940043871/orgs",
      "repos_url": "https://api.github.com/users/qq940043871/repos",
      "events_url": "https://api.github.com/users/qq940043871/events{/privacy}",
      "received_events_url": "https://api.github.com/users/qq940043871/received_events",
      "type": "User",
      "site_admin": false
    },
    "created_at": "2018-05-22T00:47:15Z",
    "updated_at": "2018-05-22T00:47:15Z",
    "author_association": "NONE",
    "body": "thank you , @karalabe @ligi ",
    "reactions": {
      "url": "https://api.github.com/repos/ethereum/go-ethereum/issues/comments/390828001/reactions",
      "total_count": 0,
      "+1": 0,
      "-1": 0,
      "laugh": 0,
      "hooray": 0,
      "confused": 0,
      "heart": 0,
      "rocket": 0,
      "eyes": 0
    },
    "performed_via_github_app": null
  },
  {
    "url": "https://api.github.com/repos/ethereum/go-ethereum/issues/comments/1205978083",
    "html_url": "https://github.com/ethereum/go-ethereum/issues/16747#issuecomment-1205978083",
    "issue_url": "https://api.github.com/repos/ethereum/go-ethereum/issues/16747",
    "id": 1205978083,
    "node_id": "IC_kwDOAOvK985H4cPj",
    "user": {
      "login": "bsvfans",
      "id": 57907253,
      "node_id": "MDQ6VXNlcjU3OTA3MjUz",
      "avatar_url": "https://avatars.githubusercontent.com/u/57907253?v=4",
      "gravatar_id": "",
      "url": "https://api.github.com/users/bsvfans",
      "html_url": "https://github.com/bsvfans",
      "followers_url": "https://api.github.com/users/bsvfans/followers",
      "following_url": "https://api.github.com/users/bsvfans/following{/other_user}",
      "gists_url": "https://api.github.com/users/bsvfans/gists{/gist_id}",
      "starred_url": "https://api.github.com/users/bsvfans/starred{/owner}{/repo}",
      "subscriptions_url": "https://api.github.com/users/bsvfans/subscriptions",
      "organizations_url": "https://api.github.com/users/bsvfans/orgs",
      "repos_url": "https://api.github.com/users/bsvfans/repos",
      "events_url": "https://api.github.com/users/bsvfans/events{/privacy}",
      "received_events_url": "https://api.github.com/users/bsvfans/received_events",
      "type": "User",
      "site_admin": false
    },
    "created_at": "2022-08-05T02:38:47Z",
    "updated_at": "2022-08-05T02:38:47Z",
    "author_association": "NONE",
    "body": "Hello, I am very interested in this, is this method successfully implemented?\r\n",
    "reactions": {
      "url": "https://api.github.com/repos/ethereum/go-ethereum/issues/comments/1205978083/reactions",
      "total_count": 0,
      "+1": 0,
      "-1": 0,
      "laugh": 0,
      "hooray": 0,
      "confused": 0,
      "heart": 0,
      "rocket": 0,
      "eyes": 0
    },
    "performed_via_github_app": null
  }
]
