{
  "url": "https://api.github.com/repos/ethereum/go-ethereum/issues/3269",
  "repository_url": "https://api.github.com/repos/ethereum/go-ethereum",
  "labels_url": "https://api.github.com/repos/ethereum/go-ethereum/issues/3269/labels{/name}",
  "comments_url": "https://api.github.com/repos/ethereum/go-ethereum/issues/3269/comments",
  "events_url": "https://api.github.com/repos/ethereum/go-ethereum/issues/3269/events",
  "html_url": "https://github.com/ethereum/go-ethereum/issues/3269",
  "id": 189403418,
  "node_id": "MDU6SXNzdWUxODk0MDM0MTg=",
  "number": 3269,
  "title": "ethclient: \"missing required JSON transaction signature fields\"",
  "user": {
    "login": "stevenroose",
    "id": 853468,
    "node_id": "MDQ6VXNlcjg1MzQ2OA==",
    "avatar_url": "https://avatars.githubusercontent.com/u/853468?v=4",
    "gravatar_id": "",
    "url": "https://api.github.com/users/stevenroose",
    "html_url": "https://github.com/stevenroose",
    "followers_url": "https://api.github.com/users/stevenroose/followers",
    "following_url": "https://api.github.com/users/stevenroose/following{/other_user}",
    "gists_url": "https://api.github.com/users/stevenroose/gists{/gist_id}",
    "starred_url": "https://api.github.com/users/stevenroose/starred{/owner}{/repo}",
    "subscriptions_url": "https://api.github.com/users/stevenroose/subscriptions",
    "organizations_url": "https://api.github.com/users/stevenroose/orgs",
    "repos_url": "https://api.github.com/users/stevenroose/repos",
    "events_url": "https://api.github.com/users/stevenroose/events{/privacy}",
    "received_events_url": "https://api.github.com/users/stevenroose/received_events",
    "type": "User",
    "site_admin": false
  },
  "labels": [

  ],
  "state": "closed",
  "locked": false,
  "assignee": null,
  "assignees": [

  ],
  "milestone": null,
  "comments": 10,
  "created_at": "2016-11-15T14:18:10Z",
  "updated_at": "2017-01-26T17:14:12Z",
  "closed_at": "2017-01-26T09:44:44Z",
  "author_association": "CONTRIBUTOR",
  "active_lock_reason": null,
  "body": "#### System information\r\nOS & Version: Arch Linux\r\nCommit hash : ca73dea3b9bcdf3b5424b5c48c70817439e2e304\r\n\r\n#### Expected behaviour\r\n`ethclient.Client.GetTransactionByHash(hash)` returns a Transaction object\r\n\r\n#### Actual behaviour\r\nThrows \"missing required JSON transaction signature fields\"\r\n\r\n#### Steps to reproduce the behaviour\r\nFire up a JSON RPC API server that is compatible with [the JSON API specification](https://github.com/ethereum/wiki/wiki/JSON-RPC#eth_gettransactionbyhash) and call the `eth_getTransactionByHash` method with an existing transaction hash.\r\n\r\n---------------------\r\n\r\nIt appears that the develop branch is breaking compatibility with the API spec. Or is there a renewed version of the spec that I'm not aware of that develop is following?",
  "closed_by": {
    "login": "obscuren",
    "id": 6264126,
    "node_id": "MDQ6VXNlcjYyNjQxMjY=",
    "avatar_url": "https://avatars.githubusercontent.com/u/6264126?v=4",
    "gravatar_id": "",
    "url": "https://api.github.com/users/obscuren",
    "html_url": "https://github.com/obscuren",
    "followers_url": "https://api.github.com/users/obscuren/followers",
    "following_url": "https://api.github.com/users/obscuren/following{/other_user}",
    "gists_url": "https://api.github.com/users/obscuren/gists{/gist_id}",
    "starred_url": "https://api.github.com/users/obscuren/starred{/owner}{/repo}",
    "subscriptions_url": "https://api.github.com/users/obscuren/subscriptions",
    "organizations_url": "https://api.github.com/users/obscuren/orgs",
    "repos_url": "https://api.github.com/users/obscuren/repos",
    "events_url": "https://api.github.com/users/obscuren/events{/privacy}",
    "received_events_url": "https://api.github.com/users/obscuren/received_events",
    "type": "User",
    "site_admin": false
  },
  "reactions": {
    "url": "https://api.github.com/repos/ethereum/go-ethereum/issues/3269/reactions",
    "total_count": 0,
    "+1": 0,
    "-1": 0,
    "laugh": 0,
    "hooray": 0,
    "confused": 0,
    "heart": 0,
    "rocket": 0,
    "eyes": 0
  },
  "timeline_url": "https://api.github.com/repos/ethereum/go-ethereum/issues/3269/timeline",
  "performed_via_github_app": null,
  "state_reason": "completed"
}
[
  {
    "url": "https://api.github.com/repos/ethereum/go-ethereum/issues/comments/260653402",
    "html_url": "https://github.com/ethereum/go-ethereum/issues/3269#issuecomment-260653402",
    "issue_url": "https://api.github.com/repos/ethereum/go-ethereum/issues/3269",
    "id": 260653402,
    "node_id": "MDEyOklzc3VlQ29tbWVudDI2MDY1MzQwMg==",
    "user": {
      "login": "fjl",
      "id": 6915,
      "node_id": "MDQ6VXNlcjY5MTU=",
      "avatar_url": "https://avatars.githubusercontent.com/u/6915?v=4",
      "gravatar_id": "",
      "url": "https://api.github.com/users/fjl",
      "html_url": "https://github.com/fjl",
      "followers_url": "https://api.github.com/users/fjl/followers",
      "following_url": "https://api.github.com/users/fjl/following{/other_user}",
      "gists_url": "https://api.github.com/users/fjl/gists{/gist_id}",
      "starred_url": "https://api.github.com/users/fjl/starred{/owner}{/repo}",
      "subscriptions_url": "https://api.github.com/users/fjl/subscriptions",
      "organizations_url": "https://api.github.com/users/fjl/orgs",
      "repos_url": "https://api.github.com/users/fjl/repos",
      "events_url": "https://api.github.com/users/fjl/events{/privacy}",
      "received_events_url": "https://api.github.com/users/fjl/received_events",
      "type": "User",
      "site_admin": false
    },
    "created_at": "2016-11-15T14:21:43Z",
    "updated_at": "2016-11-15T14:21:48Z",
    "author_association": "MEMBER",
    "body": "Which server are you using?\n",
    "reactions": {
      "url": "https://api.github.com/repos/ethereum/go-ethereum/issues/comments/260653402/reactions",
      "total_count": 0,
      "+1": 0,
      "-1": 0,
      "laugh": 0,
      "hooray": 0,
      "confused": 0,
      "heart": 0,
      "rocket": 0,
      "eyes": 0
    },
    "performed_via_github_app": null
  },
  {
    "url": "https://api.github.com/repos/ethereum/go-ethereum/issues/comments/260653725",
    "html_url": "https://github.com/ethereum/go-ethereum/issues/3269#issuecomment-260653725",
    "issue_url": "https://api.github.com/repos/ethereum/go-ethereum/issues/3269",
    "id": 260653725,
    "node_id": "MDEyOklzc3VlQ29tbWVudDI2MDY1MzcyNQ==",
    "user": {
      "login": "fjl",
      "id": 6915,
      "node_id": "MDQ6VXNlcjY5MTU=",
      "avatar_url": "https://avatars.githubusercontent.com/u/6915?v=4",
      "gravatar_id": "",
      "url": "https://api.github.com/users/fjl",
      "html_url": "https://github.com/fjl",
      "followers_url": "https://api.github.com/users/fjl/followers",
      "following_url": "https://api.github.com/users/fjl/following{/other_user}",
      "gists_url": "https://api.github.com/users/fjl/gists{/gist_id}",
      "starred_url": "https://api.github.com/users/fjl/starred{/owner}{/repo}",
      "subscriptions_url": "https://api.github.com/users/fjl/subscriptions",
      "organizations_url": "https://api.github.com/users/fjl/orgs",
      "repos_url": "https://api.github.com/users/fjl/repos",
      "events_url": "https://api.github.com/users/fjl/events{/privacy}",
      "received_events_url": "https://api.github.com/users/fjl/received_events",
      "type": "User",
      "site_admin": false
    },
    "created_at": "2016-11-15T14:23:01Z",
    "updated_at": "2016-11-15T14:23:01Z",
    "author_association": "MEMBER",
    "body": "ethclient needs the `v`, `r`, `s` fields in order to be able to reconstruct complete transactions. These fields are returned by geth 1.5.0 or later as well as parity on the master branch.\n",
    "reactions": {
      "url": "https://api.github.com/repos/ethereum/go-ethereum/issues/comments/260653725/reactions",
      "total_count": 0,
      "+1": 0,
      "-1": 0,
      "laugh": 0,
      "hooray": 0,
      "confused": 0,
      "heart": 0,
      "rocket": 0,
      "eyes": 0
    },
    "performed_via_github_app": null
  },
  {
    "url": "https://api.github.com/repos/ethereum/go-ethereum/issues/comments/260655253",
    "html_url": "https://github.com/ethereum/go-ethereum/issues/3269#issuecomment-260655253",
    "issue_url": "https://api.github.com/repos/ethereum/go-ethereum/issues/3269",
    "id": 260655253,
    "node_id": "MDEyOklzc3VlQ29tbWVudDI2MDY1NTI1Mw==",
    "user": {
      "login": "fjl",
      "id": 6915,
      "node_id": "MDQ6VXNlcjY5MTU=",
      "avatar_url": "https://avatars.githubusercontent.com/u/6915?v=4",
      "gravatar_id": "",
      "url": "https://api.github.com/users/fjl",
      "html_url": "https://github.com/fjl",
      "followers_url": "https://api.github.com/users/fjl/followers",
      "following_url": "https://api.github.com/users/fjl/following{/other_user}",
      "gists_url": "https://api.github.com/users/fjl/gists{/gist_id}",
      "starred_url": "https://api.github.com/users/fjl/starred{/owner}{/repo}",
      "subscriptions_url": "https://api.github.com/users/fjl/subscriptions",
      "organizations_url": "https://api.github.com/users/fjl/orgs",
      "repos_url": "https://api.github.com/users/fjl/repos",
      "events_url": "https://api.github.com/users/fjl/events{/privacy}",
      "received_events_url": "https://api.github.com/users/fjl/received_events",
      "type": "User",
      "site_admin": false
    },
    "created_at": "2016-11-15T14:28:50Z",
    "updated_at": "2016-11-15T14:28:50Z",
    "author_association": "MEMBER",
    "body": "Can you dump the RPC response? This could also be an issue on our end.\n",
    "reactions": {
      "url": "https://api.github.com/repos/ethereum/go-ethereum/issues/comments/260655253/reactions",
      "total_count": 0,
      "+1": 0,
      "-1": 0,
      "laugh": 0,
      "hooray": 0,
      "confused": 0,
      "heart": 0,
      "rocket": 0,
      "eyes": 0
    },
    "performed_via_github_app": null
  },
  {
    "url": "https://api.github.com/repos/ethereum/go-ethereum/issues/comments/260655505",
    "html_url": "https://github.com/ethereum/go-ethereum/issues/3269#issuecomment-260655505",
    "issue_url": "https://api.github.com/repos/ethereum/go-ethereum/issues/3269",
    "id": 260655505,
    "node_id": "MDEyOklzc3VlQ29tbWVudDI2MDY1NTUwNQ==",
    "user": {
      "login": "stevenroose",
      "id": 853468,
      "node_id": "MDQ6VXNlcjg1MzQ2OA==",
      "avatar_url": "https://avatars.githubusercontent.com/u/853468?v=4",
      "gravatar_id": "",
      "url": "https://api.github.com/users/stevenroose",
      "html_url": "https://github.com/stevenroose",
      "followers_url": "https://api.github.com/users/stevenroose/followers",
      "following_url": "https://api.github.com/users/stevenroose/following{/other_user}",
      "gists_url": "https://api.github.com/users/stevenroose/gists{/gist_id}",
      "starred_url": "https://api.github.com/users/stevenroose/starred{/owner}{/repo}",
      "subscriptions_url": "https://api.github.com/users/stevenroose/subscriptions",
      "organizations_url": "https://api.github.com/users/stevenroose/orgs",
      "repos_url": "https://api.github.com/users/stevenroose/repos",
      "events_url": "https://api.github.com/users/stevenroose/events{/privacy}",
      "received_events_url": "https://api.github.com/users/stevenroose/received_events",
      "type": "User",
      "site_admin": false
    },
    "created_at": "2016-11-15T14:29:49Z",
    "updated_at": "2016-11-15T14:30:17Z",
    "author_association": "CONTRIBUTOR",
    "body": "I'm using the latest Parity (made a report [here](https://github.com/ethcore/parity/issues/3158#issuecomment-260654372) as well).\n\nHowever, the API spec I mentioned does not include the r, s and v fields, so either way a server following the spec is no longer supported in v1.5.\n\nLet me try and get the raw JSON.\n",
    "reactions": {
      "url": "https://api.github.com/repos/ethereum/go-ethereum/issues/comments/260655505/reactions",
      "total_count": 0,
      "+1": 0,
      "-1": 0,
      "laugh": 0,
      "hooray": 0,
      "confused": 0,
      "heart": 0,
      "rocket": 0,
      "eyes": 0
    },
    "performed_via_github_app": null
  },
  {
    "url": "https://api.github.com/repos/ethereum/go-ethereum/issues/comments/260656252",
    "html_url": "https://github.com/ethereum/go-ethereum/issues/3269#issuecomment-260656252",
    "issue_url": "https://api.github.com/repos/ethereum/go-ethereum/issues/3269",
    "id": 260656252,
    "node_id": "MDEyOklzc3VlQ29tbWVudDI2MDY1NjI1Mg==",
    "user": {
      "login": "stevenroose",
      "id": 853468,
      "node_id": "MDQ6VXNlcjg1MzQ2OA==",
      "avatar_url": "https://avatars.githubusercontent.com/u/853468?v=4",
      "gravatar_id": "",
      "url": "https://api.github.com/users/stevenroose",
      "html_url": "https://github.com/stevenroose",
      "followers_url": "https://api.github.com/users/stevenroose/followers",
      "following_url": "https://api.github.com/users/stevenroose/following{/other_user}",
      "gists_url": "https://api.github.com/users/stevenroose/gists{/gist_id}",
      "starred_url": "https://api.github.com/users/stevenroose/starred{/owner}{/repo}",
      "subscriptions_url": "https://api.github.com/users/stevenroose/subscriptions",
      "organizations_url": "https://api.github.com/users/stevenroose/orgs",
      "repos_url": "https://api.github.com/users/stevenroose/repos",
      "events_url": "https://api.github.com/users/stevenroose/events{/privacy}",
      "received_events_url": "https://api.github.com/users/stevenroose/received_events",
      "type": "User",
      "site_admin": false
    },
    "created_at": "2016-11-15T14:32:33Z",
    "updated_at": "2016-11-15T14:33:30Z",
    "author_association": "CONTRIBUTOR",
    "body": "It seems to be `ethclient.BlockByNumber(context, nil)` throwing the exception. I can't access the JSON, but I can give this:\n\n```\n> eth.getBlock('latest')\n{\n  author: \"0xf3b9d2c81f2b24b0fa0acaaa865b7d9ced5fc2fb\",\n  difficulty: 71064143929134,\n  extraData: \"0x426974436c756220455448204d696e696e6720506f6f6c\",\n  gasLimit: 2000000,\n  gasUsed: 63000,\n  hash: \"0xecb7972419884252986933ee844c68de5ec75ceb00c6a6c01f3074bd88c89f0b\",\n  logsBloom: \"0x00000000000000000000000000000000000000000000000000000000000000000000000000000000000000000000000000000000000000000000000000000000000000000000000000000000000000000000000000000000000000000000000000000000000000000000000000000000000000000000000000000000000000000000000000000000000000000000000000000000000000000000000000000000000000000000000000000000000000000000000000000000000000000000000000000000000000000000000000000000000000000000000000000000000000000000000000000000000000000000000000000000000000000000000000000000\",\n  miner: \"0xf3b9d2c81f2b24b0fa0acaaa865b7d9ced5fc2fb\",\n  mixHash: \"0x8d40e4549a66475d2b5bdcb9a8368122c82649547c2c72fb852d1c41421652ea\",\n  nonce: \"0x9236f25b0277336d\",\n  number: 2632024,\n  parentHash: \"0x6903fbcca8c2aaa289b3b24978b4edc16a97e3635897605cfeddae2f6fb8770c\",\n  receiptsRoot: \"0xcbd47d5efae69167bca8f00d668bdcb303f5202c4bcff292736f68bb3eb6884d\",\n  sealFields: [\"0x8d40e4549a66475d2b5bdcb9a8368122c82649547c2c72fb852d1c41421652ea\", \"0x9236f25b0277336d\"],\n  sha3Uncles: \"0x1dcc4de8dec75d7aab85b567b6ccd41ad312451b948a7413f0a142fd40d49347\",\n  size: 883,\n  stateRoot: \"0x01f401e8131ee051aa8666ffa277e34226cd7a79bfadb0c295a596341d8e8f75\",\n  timestamp: 1479220305,\n  totalDifficulty: 90167044428100108886,\n  transactions: [\"0x2edbb63c97d33867d2772d5960577f7edf415e9d19c4530fe40850e8a21fae6a\", \"0xd92be3b3eeb6b5febb73bf466bd01e0afd897e31020f0d271035a3777c042fa5\", \"0xedb4ba74c9cf0b5811cd979e7cd2ddfe02dc8a3e46b0629da21e8bd06b568eba\"],\n  transactionsRoot: \"0xfc669abb62188a8a51fc3951c41e746cfa01a1439d5e183ef9a1514e3c3ddf70\",\n  uncles: []\n}\n```\n\n```\n> eth.getTransaction(\"0x2edbb63c97d33867d2772d5960577f7edf415e9d19c4530fe40850e8a21fae6a\")\n{\n  blockHash: \"0xecb7972419884252986933ee844c68de5ec75ceb00c6a6c01f3074bd88c89f0b\",\n  blockNumber: 2632024,\n  creates: null,\n  from: \"0xfbe26da0e985087d28228defbdaa394713b0865f\",\n  gas: 21000,\n  gasPrice: 40000000000,\n  hash: \"0x2edbb63c97d33867d2772d5960577f7edf415e9d19c4530fe40850e8a21fae6a\",\n  input: \"0x\",\n  nonce: 22978,\n  publicKey: \"0x362cad99ac3200bcde703caf83a6e600f6f893c200ca33bea2e883db2ebf53f5b44367806c93bd59fb3829e44576fe4f26006deb1bed97ea88220724fb187fe2\",\n  raw: \"0xf86d8259c28509502f900082520894d5641a90556c582a51a62a3268430246d743600b87386cdf1b572700801ba090733b29008e20d65cc78a5a4b024ff69833efddba4a50fb6d3348d0963d9102a0501dd1226399dbdb23c121f5db8214fb41a7e84784d39d7d6f9dd5736d9084c3\",\n  to: \"0xd5641a90556c582a51a62a3268430246d743600b\",\n  transactionIndex: 0,\n  value: 15882304188000000\n}\n```\n",
    "reactions": {
      "url": "https://api.github.com/repos/ethereum/go-ethereum/issues/comments/260656252/reactions",
      "total_count": 0,
      "+1": 0,
      "-1": 0,
      "laugh": 0,
      "hooray": 0,
      "confused": 0,
      "heart": 0,
      "rocket": 0,
      "eyes": 0
    },
    "performed_via_github_app": null
  },
  {
    "url": "https://api.github.com/repos/ethereum/go-ethereum/issues/comments/260657074",
    "html_url": "https://github.com/ethereum/go-ethereum/issues/3269#issuecomment-260657074",
    "issue_url": "https://api.github.com/repos/ethereum/go-ethereum/issues/3269",
    "id": 260657074,
    "node_id": "MDEyOklzc3VlQ29tbWVudDI2MDY1NzA3NA==",
    "user": {
      "login": "stevenroose",
      "id": 853468,
      "node_id": "MDQ6VXNlcjg1MzQ2OA==",
      "avatar_url": "https://avatars.githubusercontent.com/u/853468?v=4",
      "gravatar_id": "",
      "url": "https://api.github.com/users/stevenroose",
      "html_url": "https://github.com/stevenroose",
      "followers_url": "https://api.github.com/users/stevenroose/followers",
      "following_url": "https://api.github.com/users/stevenroose/following{/other_user}",
      "gists_url": "https://api.github.com/users/stevenroose/gists{/gist_id}",
      "starred_url": "https://api.github.com/users/stevenroose/starred{/owner}{/repo}",
      "subscriptions_url": "https://api.github.com/users/stevenroose/subscriptions",
      "organizations_url": "https://api.github.com/users/stevenroose/orgs",
      "repos_url": "https://api.github.com/users/stevenroose/repos",
      "events_url": "https://api.github.com/users/stevenroose/events{/privacy}",
      "received_events_url": "https://api.github.com/users/stevenroose/received_events",
      "type": "User",
      "site_admin": false
    },
    "created_at": "2016-11-15T14:35:27Z",
    "updated_at": "2016-11-15T14:35:40Z",
    "author_association": "CONTRIBUTOR",
    "body": "Btw, Geth v1.5.0 still advertises the same version of the API: \n`modules: admin:1.0 debug:1.0 eth:1.0 miner:1.0 net:1.0 personal:1.0 rpc:1.0 shh:1.0 txpool:1.0 web3:1.0`\n\nThis should definitely change if breaking changes are made..\n",
    "reactions": {
      "url": "https://api.github.com/repos/ethereum/go-ethereum/issues/comments/260657074/reactions",
      "total_count": 0,
      "+1": 0,
      "-1": 0,
      "laugh": 0,
      "hooray": 0,
      "confused": 0,
      "heart": 0,
      "rocket": 0,
      "eyes": 0
    },
    "performed_via_github_app": null
  },
  {
    "url": "https://api.github.com/repos/ethereum/go-ethereum/issues/comments/260814502",
    "html_url": "https://github.com/ethereum/go-ethereum/issues/3269#issuecomment-260814502",
    "issue_url": "https://api.github.com/repos/ethereum/go-ethereum/issues/3269",
    "id": 260814502,
    "node_id": "MDEyOklzc3VlQ29tbWVudDI2MDgxNDUwMg==",
    "user": {
      "login": "fjl",
      "id": 6915,
      "node_id": "MDQ6VXNlcjY5MTU=",
      "avatar_url": "https://avatars.githubusercontent.com/u/6915?v=4",
      "gravatar_id": "",
      "url": "https://api.github.com/users/fjl",
      "html_url": "https://github.com/fjl",
      "followers_url": "https://api.github.com/users/fjl/followers",
      "following_url": "https://api.github.com/users/fjl/following{/other_user}",
      "gists_url": "https://api.github.com/users/fjl/gists{/gist_id}",
      "starred_url": "https://api.github.com/users/fjl/starred{/owner}{/repo}",
      "subscriptions_url": "https://api.github.com/users/fjl/subscriptions",
      "organizations_url": "https://api.github.com/users/fjl/orgs",
      "repos_url": "https://api.github.com/users/fjl/repos",
      "events_url": "https://api.github.com/users/fjl/events{/privacy}",
      "received_events_url": "https://api.github.com/users/fjl/received_events",
      "type": "User",
      "site_admin": false
    },
    "created_at": "2016-11-16T00:23:47Z",
    "updated_at": "2016-11-16T00:23:47Z",
    "author_association": "MEMBER",
    "body": "Looks like they will backport the fix soon.\n",
    "reactions": {
      "url": "https://api.github.com/repos/ethereum/go-ethereum/issues/comments/260814502/reactions",
      "total_count": 0,
      "+1": 0,
      "-1": 0,
      "laugh": 0,
      "hooray": 0,
      "confused": 0,
      "heart": 0,
      "rocket": 0,
      "eyes": 0
    },
    "performed_via_github_app": null
  },
  {
    "url": "https://api.github.com/repos/ethereum/go-ethereum/issues/comments/260908672",
    "html_url": "https://github.com/ethereum/go-ethereum/issues/3269#issuecomment-260908672",
    "issue_url": "https://api.github.com/repos/ethereum/go-ethereum/issues/3269",
    "id": 260908672,
    "node_id": "MDEyOklzc3VlQ29tbWVudDI2MDkwODY3Mg==",
    "user": {
      "login": "stevenroose",
      "id": 853468,
      "node_id": "MDQ6VXNlcjg1MzQ2OA==",
      "avatar_url": "https://avatars.githubusercontent.com/u/853468?v=4",
      "gravatar_id": "",
      "url": "https://api.github.com/users/stevenroose",
      "html_url": "https://github.com/stevenroose",
      "followers_url": "https://api.github.com/users/stevenroose/followers",
      "following_url": "https://api.github.com/users/stevenroose/following{/other_user}",
      "gists_url": "https://api.github.com/users/stevenroose/gists{/gist_id}",
      "starred_url": "https://api.github.com/users/stevenroose/starred{/owner}{/repo}",
      "subscriptions_url": "https://api.github.com/users/stevenroose/subscriptions",
      "organizations_url": "https://api.github.com/users/stevenroose/orgs",
      "repos_url": "https://api.github.com/users/stevenroose/repos",
      "events_url": "https://api.github.com/users/stevenroose/events{/privacy}",
      "received_events_url": "https://api.github.com/users/stevenroose/received_events",
      "type": "User",
      "site_admin": false
    },
    "created_at": "2016-11-16T10:21:26Z",
    "updated_at": "2016-11-16T10:21:26Z",
    "author_association": "CONTRIBUTOR",
    "body": "@fjl Well, there are still issues regarding Geth and ethclient not following any specification whatsoever. As long as Geth keeps making changes without documenting a new spec, I guess ethclient will never be compatible with Parity..\n",
    "reactions": {
      "url": "https://api.github.com/repos/ethereum/go-ethereum/issues/comments/260908672/reactions",
      "total_count": 0,
      "+1": 0,
      "-1": 0,
      "laugh": 0,
      "hooray": 0,
      "confused": 0,
      "heart": 0,
      "rocket": 0,
      "eyes": 0
    },
    "performed_via_github_app": null
  },
  {
    "url": "https://api.github.com/repos/ethereum/go-ethereum/issues/comments/262789260",
    "html_url": "https://github.com/ethereum/go-ethereum/issues/3269#issuecomment-262789260",
    "issue_url": "https://api.github.com/repos/ethereum/go-ethereum/issues/3269",
    "id": 262789260,
    "node_id": "MDEyOklzc3VlQ29tbWVudDI2Mjc4OTI2MA==",
    "user": {
      "login": "tjayrush",
      "id": 5417918,
      "node_id": "MDQ6VXNlcjU0MTc5MTg=",
      "avatar_url": "https://avatars.githubusercontent.com/u/5417918?v=4",
      "gravatar_id": "",
      "url": "https://api.github.com/users/tjayrush",
      "html_url": "https://github.com/tjayrush",
      "followers_url": "https://api.github.com/users/tjayrush/followers",
      "following_url": "https://api.github.com/users/tjayrush/following{/other_user}",
      "gists_url": "https://api.github.com/users/tjayrush/gists{/gist_id}",
      "starred_url": "https://api.github.com/users/tjayrush/starred{/owner}{/repo}",
      "subscriptions_url": "https://api.github.com/users/tjayrush/subscriptions",
      "organizations_url": "https://api.github.com/users/tjayrush/orgs",
      "repos_url": "https://api.github.com/users/tjayrush/repos",
      "events_url": "https://api.github.com/users/tjayrush/events{/privacy}",
      "received_events_url": "https://api.github.com/users/tjayrush/received_events",
      "type": "User",
      "site_admin": false
    },
    "created_at": "2016-11-24T14:32:07Z",
    "updated_at": "2016-11-24T14:32:07Z",
    "author_association": "NONE",
    "body": "I summarized seven differences between 'geth' and Parity and the documentation in this issue: https://github.com/ethereum/go-ethereum/issues/3339. I did tests against about 1,000 randomly selected blocks and found only the noted differences.",
    "reactions": {
      "url": "https://api.github.com/repos/ethereum/go-ethereum/issues/comments/262789260/reactions",
      "total_count": 0,
      "+1": 0,
      "-1": 0,
      "laugh": 0,
      "hooray": 0,
      "confused": 0,
      "heart": 0,
      "rocket": 0,
      "eyes": 0
    },
    "performed_via_github_app": null
  },
  {
    "url": "https://api.github.com/repos/ethereum/go-ethereum/issues/comments/275448637",
    "html_url": "https://github.com/ethereum/go-ethereum/issues/3269#issuecomment-275448637",
    "issue_url": "https://api.github.com/repos/ethereum/go-ethereum/issues/3269",
    "id": 275448637,
    "node_id": "MDEyOklzc3VlQ29tbWVudDI3NTQ0ODYzNw==",
    "user": {
      "login": "stevenroose",
      "id": 853468,
      "node_id": "MDQ6VXNlcjg1MzQ2OA==",
      "avatar_url": "https://avatars.githubusercontent.com/u/853468?v=4",
      "gravatar_id": "",
      "url": "https://api.github.com/users/stevenroose",
      "html_url": "https://github.com/stevenroose",
      "followers_url": "https://api.github.com/users/stevenroose/followers",
      "following_url": "https://api.github.com/users/stevenroose/following{/other_user}",
      "gists_url": "https://api.github.com/users/stevenroose/gists{/gist_id}",
      "starred_url": "https://api.github.com/users/stevenroose/starred{/owner}{/repo}",
      "subscriptions_url": "https://api.github.com/users/stevenroose/subscriptions",
      "organizations_url": "https://api.github.com/users/stevenroose/orgs",
      "repos_url": "https://api.github.com/users/stevenroose/repos",
      "events_url": "https://api.github.com/users/stevenroose/events{/privacy}",
      "received_events_url": "https://api.github.com/users/stevenroose/received_events",
      "type": "User",
      "site_admin": false
    },
    "created_at": "2017-01-26T17:14:12Z",
    "updated_at": "2017-01-26T17:14:12Z",
    "author_association": "CONTRIBUTOR",
    "body": "@obscuren Is this issue resolved?",
    "reactions": {
      "url": "https://api.github.com/repos/ethereum/go-ethereum/issues/comments/275448637/reactions",
      "total_count": 0,
      "+1": 0,
      "-1": 0,
      "laugh": 0,
      "hooray": 0,
      "confused": 0,
      "heart": 0,
      "rocket": 0,
      "eyes": 0
    },
    "performed_via_github_app": null
  }
]
